{
  "_format": "hh-sol-artifact-1",
  "contractName": "TestCompile",
  "sourceName": "contracts/TestCompile.sol",
  "abi": [
    {
      "inputs": [],
      "name": "x",
      "outputs": [
        {
          "internalType": "uint256",
          "name": "",
          "type": "uint256"
        }
      ],
      "stateMutability": "view",
      "type": "function"
    }
  ],
  "bytecode": "0x6080604052600160005534801561001557600080fd5b5060b3806100246000396000f3fe6080604052348015600f57600080fd5b506004361060285760003560e01c80630c55699c14602d575b600080fd5b60336047565b604051603e91906064565b60405180910390f35b60005481565b6000819050919050565b605e81604d565b82525050565b6000602082019050607760008301846057565b9291505056fea2646970667358221220c4f5b112aa6a3dbd5a937a105c0aba6a1f481cab51483ade74b4a2c4187acb7964736f6c63430008150033",
  "linkReferences": {},
  "deployedLinkReferences": {}
}