{
  "_format": "hh-sol-artifact-1",
  "contractName": "Hypercert",
  "sourceName": "contracts/Hypercert.sol",
  "abi": [
    {
      "inputs": [],
      "stateMutability": "nonpayable",
      "type": "constructor"
    },
    {
      "inputs": [
        {
          "internalType": "address",
          "name": "sender",
          "type": "address"
        },
        {
          "internalType": "uint256",
          "name": "balance",
          "type": "uint256"
        },
        {
          "internalType": "uint256",
          "name": "needed",
          "type": "uint256"
        },
        {
          "internalType": "uint256",
          "name": "tokenId",
          "type": "uint256"
        }
      ],
      "name": "ERC1155InsufficientBalance",
      "type": "error"
    },
    {
      "inputs": [
        {
          "internalType": "address",
          "name": "approver",
          "type": "address"
        }
      ],
      "name": "ERC1155InvalidApprover",
      "type": "error"
    },
    {
      "inputs": [
        {
          "internalType": "uint256",
          "name": "idsLength",
          "type": "uint256"
        },
        {
          "internalType": "uint256",
          "name": "valuesLength",
          "type": "uint256"
        }
      ],
      "name": "ERC1155InvalidArrayLength",
      "type": "error"
    },
    {
      "inputs": [
        {
          "internalType": "address",
          "name": "operator",
          "type": "address"
        }
      ],
      "name": "ERC1155InvalidOperator",
      "type": "error"
    },
    {
      "inputs": [
        {
          "internalType": "address",
          "name": "receiver",
          "type": "address"
        }
      ],
      "name": "ERC1155InvalidReceiver",
      "type": "error"
    },
    {
      "inputs": [
        {
          "internalType": "address",
          "name": "sender",
          "type": "address"
        }
      ],
      "name": "ERC1155InvalidSender",
      "type": "error"
    },
    {
      "inputs": [
        {
          "internalType": "address",
          "name": "operator",
          "type": "address"
        },
        {
          "internalType": "address",
          "name": "owner",
          "type": "address"
        }
      ],
      "name": "ERC1155MissingApprovalForAll",
      "type": "error"
    },
    {
      "inputs": [
        {
          "internalType": "address",
          "name": "owner",
          "type": "address"
        }
      ],
      "name": "OwnableInvalidOwner",
      "type": "error"
    },
    {
      "inputs": [
        {
          "internalType": "address",
          "name": "account",
          "type": "address"
        }
      ],
      "name": "OwnableUnauthorizedAccount",
      "type": "error"
    },
    {
      "anonymous": false,
      "inputs": [
        {
          "indexed": true,
          "internalType": "address",
          "name": "account",
          "type": "address"
        },
        {
          "indexed": true,
          "internalType": "address",
          "name": "operator",
          "type": "address"
        },
        {
          "indexed": false,
          "internalType": "bool",
          "name": "approved",
          "type": "bool"
        }
      ],
      "name": "ApprovalForAll",
      "type": "event"
    },
    {
      "anonymous": false,
      "inputs": [
        {
          "indexed": true,
          "internalType": "address",
          "name": "previousOwner",
          "type": "address"
        },
        {
          "indexed": true,
          "internalType": "address",
          "name": "newOwner",
          "type": "address"
        }
      ],
      "name": "OwnershipTransferred",
      "type": "event"
    },
    {
      "anonymous": false,
      "inputs": [
        {
          "indexed": true,
          "internalType": "address",
          "name": "operator",
          "type": "address"
        },
        {
          "indexed": true,
          "internalType": "address",
          "name": "from",
          "type": "address"
        },
        {
          "indexed": true,
          "internalType": "address",
          "name": "to",
          "type": "address"
        },
        {
          "indexed": false,
          "internalType": "uint256[]",
          "name": "ids",
          "type": "uint256[]"
        },
        {
          "indexed": false,
          "internalType": "uint256[]",
          "name": "values",
          "type": "uint256[]"
        }
      ],
      "name": "TransferBatch",
      "type": "event"
    },
    {
      "anonymous": false,
      "inputs": [
        {
          "indexed": true,
          "internalType": "address",
          "name": "operator",
          "type": "address"
        },
        {
          "indexed": true,
          "internalType": "address",
          "name": "from",
          "type": "address"
        },
        {
          "indexed": true,
          "internalType": "address",
          "name": "to",
          "type": "address"
        },
        {
          "indexed": false,
          "internalType": "uint256",
          "name": "id",
          "type": "uint256"
        },
        {
          "indexed": false,
          "internalType": "uint256",
          "name": "value",
          "type": "uint256"
        }
      ],
      "name": "TransferSingle",
      "type": "event"
    },
    {
      "anonymous": false,
      "inputs": [
        {
          "indexed": false,
          "internalType": "string",
          "name": "value",
          "type": "string"
        },
        {
          "indexed": true,
          "internalType": "uint256",
          "name": "id",
          "type": "uint256"
        }
      ],
      "name": "URI",
      "type": "event"
    },
    {
      "inputs": [
        {
          "internalType": "address",
          "name": "account",
          "type": "address"
        },
        {
          "internalType": "uint256",
          "name": "id",
          "type": "uint256"
        }
      ],
      "name": "balanceOf",
      "outputs": [
        {
          "internalType": "uint256",
          "name": "",
          "type": "uint256"
        }
      ],
      "stateMutability": "view",
      "type": "function"
    },
    {
      "inputs": [
        {
          "internalType": "address[]",
          "name": "accounts",
          "type": "address[]"
        },
        {
          "internalType": "uint256[]",
          "name": "ids",
          "type": "uint256[]"
        }
      ],
      "name": "balanceOfBatch",
      "outputs": [
        {
          "internalType": "uint256[]",
          "name": "",
          "type": "uint256[]"
        }
      ],
      "stateMutability": "view",
      "type": "function"
    },
    {
      "inputs": [
        {
          "internalType": "address",
          "name": "account",
          "type": "address"
        },
        {
          "internalType": "address",
          "name": "operator",
          "type": "address"
        }
      ],
      "name": "isApprovedForAll",
      "outputs": [
        {
          "internalType": "bool",
          "name": "",
          "type": "bool"
        }
      ],
      "stateMutability": "view",
      "type": "function"
    },
    {
      "inputs": [
        {
          "internalType": "address",
          "name": "to",
          "type": "address"
        },
        {
          "internalType": "string",
          "name": "metadataURI",
          "type": "string"
        }
      ],
      "name": "mint",
      "outputs": [
        {
          "internalType": "uint256",
          "name": "",
          "type": "uint256"
        }
      ],
      "stateMutability": "nonpayable",
      "type": "function"
    },
    {
      "inputs": [],
      "name": "nextId",
      "outputs": [
        {
          "internalType": "uint256",
          "name": "",
          "type": "uint256"
        }
      ],
      "stateMutability": "view",
      "type": "function"
    },
    {
      "inputs": [],
      "name": "owner",
      "outputs": [
        {
          "internalType": "address",
          "name": "",
          "type": "address"
        }
      ],
      "stateMutability": "view",
      "type": "function"
    },
    {
      "inputs": [],
      "name": "renounceOwnership",
      "outputs": [],
      "stateMutability": "nonpayable",
      "type": "function"
    },
    {
      "inputs": [
        {
          "internalType": "address",
          "name": "from",
          "type": "address"
        },
        {
          "internalType": "address",
          "name": "to",
          "type": "address"
        },
        {
          "internalType": "uint256[]",
          "name": "ids",
          "type": "uint256[]"
        },
        {
          "internalType": "uint256[]",
          "name": "values",
          "type": "uint256[]"
        },
        {
          "internalType": "bytes",
          "name": "data",
          "type": "bytes"
        }
      ],
      "name": "safeBatchTransferFrom",
      "outputs": [],
      "stateMutability": "nonpayable",
      "type": "function"
    },
    {
      "inputs": [
        {
          "internalType": "address",
          "name": "from",
          "type": "address"
        },
        {
          "internalType": "address",
          "name": "to",
          "type": "address"
        },
        {
          "internalType": "uint256",
          "name": "id",
          "type": "uint256"
        },
        {
          "internalType": "uint256",
          "name": "value",
          "type": "uint256"
        },
        {
          "internalType": "bytes",
          "name": "data",
          "type": "bytes"
        }
      ],
      "name": "safeTransferFrom",
      "outputs": [],
      "stateMutability": "nonpayable",
      "type": "function"
    },
    {
      "inputs": [
        {
          "internalType": "address",
          "name": "operator",
          "type": "address"
        },
        {
          "internalType": "bool",
          "name": "approved",
          "type": "bool"
        }
      ],
      "name": "setApprovalForAll",
      "outputs": [],
      "stateMutability": "nonpayable",
      "type": "function"
    },
    {
      "inputs": [
        {
          "internalType": "bytes4",
          "name": "interfaceId",
          "type": "bytes4"
        }
      ],
      "name": "supportsInterface",
      "outputs": [
        {
          "internalType": "bool",
          "name": "",
          "type": "bool"
        }
      ],
      "stateMutability": "view",
      "type": "function"
    },
    {
      "inputs": [
        {
          "internalType": "address",
          "name": "newOwner",
          "type": "address"
        }
      ],
      "name": "transferOwnership",
      "outputs": [],
      "stateMutability": "nonpayable",
      "type": "function"
    },
    {
      "inputs": [
        {
          "internalType": "uint256",
          "name": "id",
          "type": "uint256"
        }
      ],
      "name": "uri",
      "outputs": [
        {
          "internalType": "string",
          "name": "",
          "type": "string"
        }
      ],
      "stateMutability": "view",
      "type": "function"
    },
    {
      "inputs": [
        {
          "internalType": "uint256",
          "name": "",
          "type": "uint256"
        }
      ],
      "name": "uriOf",
      "outputs": [
        {
          "internalType": "string",
          "name": "",
          "type": "string"
        }
      ],
      "stateMutability": "view",
      "type": "function"
    }
  ],
  "bytecode": "0x60806040523480156200001157600080fd5b5033604051806020016040528060008152506200003481620000ca60201b60201c565b50600073ffffffffffffffffffffffffffffffffffffffff168173ffffffffffffffffffffffffffffffffffffffff1603620000aa5760006040517f1e4fbdf7000000000000000000000000000000000000000000000000000000008152600401620000a19190620001ea565b60405180910390fd5b620000bb81620000df60201b60201c565b50600160048190555062000568565b8060029081620000db919062000481565b5050565b6000600360009054906101000a900473ffffffffffffffffffffffffffffffffffffffff16905081600360006101000a81548173ffffffffffffffffffffffffffffffffffffffff021916908373ffffffffffffffffffffffffffffffffffffffff1602179055508173ffffffffffffffffffffffffffffffffffffffff168173ffffffffffffffffffffffffffffffffffffffff167f8be0079c531659141344cd1fd0a4f28419497f9722a3daafe3b4186f6b6457e060405160405180910390a35050565b600073ffffffffffffffffffffffffffffffffffffffff82169050919050565b6000620001d282620001a5565b9050919050565b620001e481620001c5565b82525050565b6000602082019050620002016000830184620001d9565b92915050565b600081519050919050565b7f4e487b7100000000000000000000000000000000000000000000000000000000600052604160045260246000fd5b7f4e487b7100000000000000000000000000000000000000000000000000000000600052602260045260246000fd5b600060028204905060018216806200028957607f821691505b6020821081036200029f576200029e62000241565b5b50919050565b60008190508160005260206000209050919050565b60006020601f8301049050919050565b600082821b905092915050565b600060088302620003097fffffffffffffffffffffffffffffffffffffffffffffffffffffffffffffffff82620002ca565b620003158683620002ca565b95508019841693508086168417925050509392505050565b6000819050919050565b6000819050919050565b6000620003626200035c62000356846200032d565b62000337565b6200032d565b9050919050565b6000819050919050565b6200037e8362000341565b620003966200038d8262000369565b848454620002d7565b825550505050565b600090565b620003ad6200039e565b620003ba81848462000373565b505050565b5b81811015620003e257620003d6600082620003a3565b600181019050620003c0565b5050565b601f8211156200043157620003fb81620002a5565b6200040684620002ba565b8101602085101562000416578190505b6200042e6200042585620002ba565b830182620003bf565b50505b505050565b600082821c905092915050565b6000620004566000198460080262000436565b1980831691505092915050565b600062000471838362000443565b9150826002028217905092915050565b6200048c8262000207565b67ffffffffffffffff811115620004a857620004a762000212565b5b620004b4825462000270565b620004c1828285620003e6565b600060209050601f831160018114620004f95760008415620004e4578287015190505b620004f0858262000463565b86555062000560565b601f1984166200050986620002a5565b60005b8281101562000533578489015182556001820191506020850194506020810190506200050c565b868310156200055357848901516200054f601f89168262000443565b8355505b6001600288020188555050505b505050505050565b6127a880620005786000396000f3fe608060405234801561001057600080fd5b50600436106100e95760003560e01c80638da5cb5b1161008c578063d0def52111610066578063d0def5211461025c578063e985e9c51461028c578063f242432a146102bc578063f2fde38b146102d8576100e9565b80638da5cb5b146101f2578063a22cb46514610210578063a312889b1461022c576100e9565b80632eb2c2d6116100c85780632eb2c2d61461017e5780634e1273f41461019a57806361b8ce8c146101ca578063715018a6146101e8576100e9565b8062fdd58e146100ee57806301ffc9a71461011e5780630e89341c1461014e575b600080fd5b6101086004803603810190610103919061184a565b6102f4565b6040516101159190611899565b60405180910390f35b6101386004803603810190610133919061190c565b61034e565b6040516101459190611954565b60405180910390f35b6101686004803603810190610163919061196f565b610430565b6040516101759190611a2c565b60405180910390f35b61019860048036038101906101939190611c4b565b6104d5565b005b6101b460048036038101906101af9190611ddd565b61057d565b6040516101c19190611f13565b60405180910390f35b6101d261068c565b6040516101df9190611899565b60405180910390f35b6101f0610692565b005b6101fa6106a6565b6040516102079190611f44565b60405180910390f35b61022a60048036038101906102259190611f8b565b6106d0565b005b6102466004803603810190610241919061196f565b6106e6565b6040516102539190611a2c565b60405180910390f35b61027660048036038101906102719190612026565b610786565b6040516102839190611899565b60405180910390f35b6102a660048036038101906102a19190612086565b6107f5565b6040516102b39190611954565b60405180910390f35b6102d660048036038101906102d191906120c6565b610889565b005b6102f260048036038101906102ed919061215d565b610931565b005b600080600083815260200190815260200160002060008473ffffffffffffffffffffffffffffffffffffffff1673ffffffffffffffffffffffffffffffffffffffff16815260200190815260200160002054905092915050565b60007fd9b67a26000000000000000000000000000000000000000000000000000000007bffffffffffffffffffffffffffffffffffffffffffffffffffffffff1916827bffffffffffffffffffffffffffffffffffffffffffffffffffffffff1916148061041957507f0e89341c000000000000000000000000000000000000000000000000000000007bffffffffffffffffffffffffffffffffffffffffffffffffffffffff1916827bffffffffffffffffffffffffffffffffffffffffffffffffffffffff1916145b806104295750610428826109b7565b5b9050919050565b6060600560008381526020019081526020016000208054610450906121b9565b80601f016020809104026020016040519081016040528092919081815260200182805461047c906121b9565b80156104c95780601f1061049e576101008083540402835291602001916104c9565b820191906000526020600020905b8154815290600101906020018083116104ac57829003601f168201915b50505050509050919050565b60006104df610a21565b90508073ffffffffffffffffffffffffffffffffffffffff168673ffffffffffffffffffffffffffffffffffffffff1614158015610524575061052286826107f5565b155b156105685780866040517fe237d92200000000000000000000000000000000000000000000000000000000815260040161055f9291906121ea565b60405180910390fd5b6105758686868686610a29565b505050505050565b606081518351146105c957815183516040517f5b0599910000000000000000000000000000000000000000000000000000000081526004016105c0929190612213565b60405180910390fd5b6000835167ffffffffffffffff8111156105e6576105e5611a53565b5b6040519080825280602002602001820160405280156106145781602001602082028036833780820191505090505b50905060005b8451811015610681576106516106398287610b2190919063ffffffff16565b61064c8387610b3590919063ffffffff16565b6102f4565b8282815181106106645761066361223c565b5b6020026020010181815250508061067a9061229a565b905061061a565b508091505092915050565b60045481565b61069a610b49565b6106a46000610bd0565b565b6000600360009054906101000a900473ffffffffffffffffffffffffffffffffffffffff16905090565b6106e26106db610a21565b8383610c96565b5050565b60056020528060005260406000206000915090508054610705906121b9565b80601f0160208091040260200160405190810160405280929190818152602001828054610731906121b9565b801561077e5780601f106107535761010080835404028352916020019161077e565b820191906000526020600020905b81548152906001019060200180831161076157829003601f168201915b505050505081565b6000610790610b49565b6000600460008154809291906107a59061229a565b9190505590506107c78582600160405180602001604052806000815250610e06565b83836005600084815260200190815260200160002091826107e9929190612499565b50809150509392505050565b6000600160008473ffffffffffffffffffffffffffffffffffffffff1673ffffffffffffffffffffffffffffffffffffffff16815260200190815260200160002060008373ffffffffffffffffffffffffffffffffffffffff1673ffffffffffffffffffffffffffffffffffffffff16815260200190815260200160002060009054906101000a900460ff16905092915050565b6000610893610a21565b90508073ffffffffffffffffffffffffffffffffffffffff168673ffffffffffffffffffffffffffffffffffffffff16141580156108d857506108d686826107f5565b155b1561091c5780866040517fe237d9220000000000000000000000000000000000000000000000000000000081526004016109139291906121ea565b60405180910390fd5b6109298686868686610e9f565b505050505050565b610939610b49565b600073ffffffffffffffffffffffffffffffffffffffff168173ffffffffffffffffffffffffffffffffffffffff16036109ab5760006040517f1e4fbdf70000000000000000000000000000000000000000000000000000000081526004016109a29190611f44565b60405180910390fd5b6109b481610bd0565b50565b60007f01ffc9a7000000000000000000000000000000000000000000000000000000007bffffffffffffffffffffffffffffffffffffffffffffffffffffffff1916827bffffffffffffffffffffffffffffffffffffffffffffffffffffffff1916149050919050565b600033905090565b600073ffffffffffffffffffffffffffffffffffffffff168473ffffffffffffffffffffffffffffffffffffffff1603610a9b5760006040517f57f447ce000000000000000000000000000000000000000000000000000000008152600401610a929190611f44565b60405180910390fd5b600073ffffffffffffffffffffffffffffffffffffffff168573ffffffffffffffffffffffffffffffffffffffff1603610b0d5760006040517f01a83514000000000000000000000000000000000000000000000000000000008152600401610b049190611f44565b60405180910390fd5b610b1a8585858585610faa565b5050505050565b600060208202602084010151905092915050565b600060208202602084010151905092915050565b610b51610a21565b73ffffffffffffffffffffffffffffffffffffffff16610b6f6106a6565b73ffffffffffffffffffffffffffffffffffffffff1614610bce57610b92610a21565b6040517f118cdaa7000000000000000000000000000000000000000000000000000000008152600401610bc59190611f44565b60405180910390fd5b565b6000600360009054906101000a900473ffffffffffffffffffffffffffffffffffffffff16905081600360006101000a81548173ffffffffffffffffffffffffffffffffffffffff021916908373ffffffffffffffffffffffffffffffffffffffff1602179055508173ffffffffffffffffffffffffffffffffffffffff168173ffffffffffffffffffffffffffffffffffffffff167f8be0079c531659141344cd1fd0a4f28419497f9722a3daafe3b4186f6b6457e060405160405180910390a35050565b600073ffffffffffffffffffffffffffffffffffffffff168273ffffffffffffffffffffffffffffffffffffffff1603610d085760006040517fced3e100000000000000000000000000000000000000000000000000000000008152600401610cff9190611f44565b60405180910390fd5b80600160008573ffffffffffffffffffffffffffffffffffffffff1673ffffffffffffffffffffffffffffffffffffffff16815260200190815260200160002060008473ffffffffffffffffffffffffffffffffffffffff1673ffffffffffffffffffffffffffffffffffffffff16815260200190815260200160002060006101000a81548160ff0219169083151502179055508173ffffffffffffffffffffffffffffffffffffffff168373ffffffffffffffffffffffffffffffffffffffff167f17307eab39ab6107e8899845ad3d59bd9653f200f220920489ca2b5937696c3183604051610df99190611954565b60405180910390a3505050565b600073ffffffffffffffffffffffffffffffffffffffff168473ffffffffffffffffffffffffffffffffffffffff1603610e785760006040517f57f447ce000000000000000000000000000000000000000000000000000000008152600401610e6f9190611f44565b60405180910390fd5b600080610e85858561105c565b91509150610e97600087848487610faa565b505050505050565b600073ffffffffffffffffffffffffffffffffffffffff168473ffffffffffffffffffffffffffffffffffffffff1603610f115760006040517f57f447ce000000000000000000000000000000000000000000000000000000008152600401610f089190611f44565b60405180910390fd5b600073ffffffffffffffffffffffffffffffffffffffff168573ffffffffffffffffffffffffffffffffffffffff1603610f835760006040517f01a83514000000000000000000000000000000000000000000000000000000008152600401610f7a9190611f44565b60405180910390fd5b600080610f90858561105c565b91509150610fa18787848487610faa565b50505050505050565b610fb68585858561108c565b600073ffffffffffffffffffffffffffffffffffffffff168473ffffffffffffffffffffffffffffffffffffffff1614611055576000610ff4610a21565b90506001845103611044576000611015600086610b3590919063ffffffff16565b9050600061102d600086610b3590919063ffffffff16565b905061103d83898985858961143a565b5050611053565b6110528187878787876115ee565b5b505b5050505050565b60608060405191506001825283602083015260408201905060018152826020820152604081016040529250929050565b80518251146110d657815181516040517f5b0599910000000000000000000000000000000000000000000000000000000081526004016110cd929190612213565b60405180910390fd5b60006110e0610a21565b905060005b83518110156112f55760006111038286610b3590919063ffffffff16565b9050600061111a8386610b3590919063ffffffff16565b9050600073ffffffffffffffffffffffffffffffffffffffff168873ffffffffffffffffffffffffffffffffffffffff161461124757600080600084815260200190815260200160002060008a73ffffffffffffffffffffffffffffffffffffffff1673ffffffffffffffffffffffffffffffffffffffff168152602001908152602001600020549050818110156111ef57888183856040517f03dee4c50000000000000000000000000000000000000000000000000000000081526004016111e69493929190612569565b60405180910390fd5b81810360008085815260200190815260200160002060008b73ffffffffffffffffffffffffffffffffffffffff1673ffffffffffffffffffffffffffffffffffffffff16815260200190815260200160002081905550505b600073ffffffffffffffffffffffffffffffffffffffff168773ffffffffffffffffffffffffffffffffffffffff16146112e2578060008084815260200190815260200160002060008973ffffffffffffffffffffffffffffffffffffffff1673ffffffffffffffffffffffffffffffffffffffff16815260200190815260200160002060008282546112da91906125ae565b925050819055505b5050806112ee9061229a565b90506110e5565b5060018351036113b4576000611315600085610b3590919063ffffffff16565b9050600061132d600085610b3590919063ffffffff16565b90508573ffffffffffffffffffffffffffffffffffffffff168773ffffffffffffffffffffffffffffffffffffffff168473ffffffffffffffffffffffffffffffffffffffff167fc3d58168c5ae7397731d063d5bbf3d657854427343f4c083240f7aacaa2d0f6285856040516113a5929190612213565b60405180910390a45050611433565b8373ffffffffffffffffffffffffffffffffffffffff168573ffffffffffffffffffffffffffffffffffffffff168273ffffffffffffffffffffffffffffffffffffffff167f4a39dc06d4c0dbc64b70af90fd698a233a518aa5d07e595d983b8c0526c8f7fb868660405161142a9291906125e2565b60405180910390a45b5050505050565b60008473ffffffffffffffffffffffffffffffffffffffff163b11156115e6578373ffffffffffffffffffffffffffffffffffffffff1663f23a6e6187878686866040518663ffffffff1660e01b815260040161149b95949392919061266e565b6020604051808303816000875af19250505080156114d757506040513d601f19601f820116820180604052508101906114d491906126dd565b60015b61155b573d8060008114611507576040519150601f19603f3d011682016040523d82523d6000602084013e61150c565b606091505b50600081510361155357846040517f57f447ce00000000000000000000000000000000000000000000000000000000815260040161154a9190611f44565b60405180910390fd5b805160208201fd5b63f23a6e6160e01b7bffffffffffffffffffffffffffffffffffffffffffffffffffffffff1916817bffffffffffffffffffffffffffffffffffffffffffffffffffffffff1916146115e457846040517f57f447ce0000000000000000000000000000000000000000000000000000000081526004016115db9190611f44565b60405180910390fd5b505b505050505050565b60008473ffffffffffffffffffffffffffffffffffffffff163b111561179a578373ffffffffffffffffffffffffffffffffffffffff1663bc197c8187878686866040518663ffffffff1660e01b815260040161164f95949392919061270a565b6020604051808303816000875af192505050801561168b57506040513d601f19601f8201168201806040525081019061168891906126dd565b60015b61170f573d80600081146116bb576040519150601f19603f3d011682016040523d82523d6000602084013e6116c0565b606091505b50600081510361170757846040517f57f447ce0000000000000000000000000000000000000000000000000000000081526004016116fe9190611f44565b60405180910390fd5b805160208201fd5b63bc197c8160e01b7bffffffffffffffffffffffffffffffffffffffffffffffffffffffff1916817bffffffffffffffffffffffffffffffffffffffffffffffffffffffff19161461179857846040517f57f447ce00000000000000000000000000000000000000000000000000000000815260040161178f9190611f44565b60405180910390fd5b505b505050505050565b6000604051905090565b600080fd5b600080fd5b600073ffffffffffffffffffffffffffffffffffffffff82169050919050565b60006117e1826117b6565b9050919050565b6117f1816117d6565b81146117fc57600080fd5b50565b60008135905061180e816117e8565b92915050565b6000819050919050565b61182781611814565b811461183257600080fd5b50565b6000813590506118448161181e565b92915050565b60008060408385031215611861576118606117ac565b5b600061186f858286016117ff565b925050602061188085828601611835565b9150509250929050565b61189381611814565b82525050565b60006020820190506118ae600083018461188a565b92915050565b60007fffffffff0000000000000000000000000000000000000000000000000000000082169050919050565b6118e9816118b4565b81146118f457600080fd5b50565b600081359050611906816118e0565b92915050565b600060208284031215611922576119216117ac565b5b6000611930848285016118f7565b91505092915050565b60008115159050919050565b61194e81611939565b82525050565b60006020820190506119696000830184611945565b92915050565b600060208284031215611985576119846117ac565b5b600061199384828501611835565b91505092915050565b600081519050919050565b600082825260208201905092915050565b60005b838110156119d65780820151818401526020810190506119bb565b60008484015250505050565b6000601f19601f8301169050919050565b60006119fe8261199c565b611a0881856119a7565b9350611a188185602086016119b8565b611a21816119e2565b840191505092915050565b60006020820190508181036000830152611a4681846119f3565b905092915050565b600080fd5b7f4e487b7100000000000000000000000000000000000000000000000000000000600052604160045260246000fd5b611a8b826119e2565b810181811067ffffffffffffffff82111715611aaa57611aa9611a53565b5b80604052505050565b6000611abd6117a2565b9050611ac98282611a82565b919050565b600067ffffffffffffffff821115611ae957611ae8611a53565b5b602082029050602081019050919050565b600080fd5b6000611b12611b0d84611ace565b611ab3565b90508083825260208201905060208402830185811115611b3557611b34611afa565b5b835b81811015611b5e5780611b4a8882611835565b845260208401935050602081019050611b37565b5050509392505050565b600082601f830112611b7d57611b7c611a4e565b5b8135611b8d848260208601611aff565b91505092915050565b600080fd5b600067ffffffffffffffff821115611bb657611bb5611a53565b5b611bbf826119e2565b9050602081019050919050565b82818337600083830152505050565b6000611bee611be984611b9b565b611ab3565b905082815260208101848484011115611c0a57611c09611b96565b5b611c15848285611bcc565b509392505050565b600082601f830112611c3257611c31611a4e565b5b8135611c42848260208601611bdb565b91505092915050565b600080600080600060a08688031215611c6757611c666117ac565b5b6000611c75888289016117ff565b9550506020611c86888289016117ff565b945050604086013567ffffffffffffffff811115611ca757611ca66117b1565b5b611cb388828901611b68565b935050606086013567ffffffffffffffff811115611cd457611cd36117b1565b5b611ce088828901611b68565b925050608086013567ffffffffffffffff811115611d0157611d006117b1565b5b611d0d88828901611c1d565b9150509295509295909350565b600067ffffffffffffffff821115611d3557611d34611a53565b5b602082029050602081019050919050565b6000611d59611d5484611d1a565b611ab3565b90508083825260208201905060208402830185811115611d7c57611d7b611afa565b5b835b81811015611da55780611d9188826117ff565b845260208401935050602081019050611d7e565b5050509392505050565b600082601f830112611dc457611dc3611a4e565b5b8135611dd4848260208601611d46565b91505092915050565b60008060408385031215611df457611df36117ac565b5b600083013567ffffffffffffffff811115611e1257611e116117b1565b5b611e1e85828601611daf565b925050602083013567ffffffffffffffff811115611e3f57611e3e6117b1565b5b611e4b85828601611b68565b9150509250929050565b600081519050919050565b600082825260208201905092915050565b6000819050602082019050919050565b611e8a81611814565b82525050565b6000611e9c8383611e81565b60208301905092915050565b6000602082019050919050565b6000611ec082611e55565b611eca8185611e60565b9350611ed583611e71565b8060005b83811015611f06578151611eed8882611e90565b9750611ef883611ea8565b925050600181019050611ed9565b5085935050505092915050565b60006020820190508181036000830152611f2d8184611eb5565b905092915050565b611f3e816117d6565b82525050565b6000602082019050611f596000830184611f35565b92915050565b611f6881611939565b8114611f7357600080fd5b50565b600081359050611f8581611f5f565b92915050565b60008060408385031215611fa257611fa16117ac565b5b6000611fb0858286016117ff565b9250506020611fc185828601611f76565b9150509250929050565b600080fd5b60008083601f840112611fe657611fe5611a4e565b5b8235905067ffffffffffffffff81111561200357612002611fcb565b5b60208301915083600182028301111561201f5761201e611afa565b5b9250929050565b60008060006040848603121561203f5761203e6117ac565b5b600061204d868287016117ff565b935050602084013567ffffffffffffffff81111561206e5761206d6117b1565b5b61207a86828701611fd0565b92509250509250925092565b6000806040838503121561209d5761209c6117ac565b5b60006120ab858286016117ff565b92505060206120bc858286016117ff565b9150509250929050565b600080600080600060a086880312156120e2576120e16117ac565b5b60006120f0888289016117ff565b9550506020612101888289016117ff565b945050604061211288828901611835565b935050606061212388828901611835565b925050608086013567ffffffffffffffff811115612144576121436117b1565b5b61215088828901611c1d565b9150509295509295909350565b600060208284031215612173576121726117ac565b5b6000612181848285016117ff565b91505092915050565b7f4e487b7100000000000000000000000000000000000000000000000000000000600052602260045260246000fd5b600060028204905060018216806121d157607f821691505b6020821081036121e4576121e361218a565b5b50919050565b60006040820190506121ff6000830185611f35565b61220c6020830184611f35565b9392505050565b6000604082019050612228600083018561188a565b612235602083018461188a565b9392505050565b7f4e487b7100000000000000000000000000000000000000000000000000000000600052603260045260246000fd5b7f4e487b7100000000000000000000000000000000000000000000000000000000600052601160045260246000fd5b60006122a582611814565b91507fffffffffffffffffffffffffffffffffffffffffffffffffffffffffffffffff82036122d7576122d661226b565b5b600182019050919050565b600082905092915050565b60008190508160005260206000209050919050565b60006020601f8301049050919050565b600082821b905092915050565b60006008830261234f7fffffffffffffffffffffffffffffffffffffffffffffffffffffffffffffffff82612312565b6123598683612312565b95508019841693508086168417925050509392505050565b6000819050919050565b600061239661239161238c84611814565b612371565b611814565b9050919050565b6000819050919050565b6123b08361237b565b6123c46123bc8261239d565b84845461231f565b825550505050565b600090565b6123d96123cc565b6123e48184846123a7565b505050565b5b81811015612408576123fd6000826123d1565b6001810190506123ea565b5050565b601f82111561244d5761241e816122ed565b61242784612302565b81016020851015612436578190505b61244a61244285612302565b8301826123e9565b50505b505050565b600082821c905092915050565b600061247060001984600802612452565b1980831691505092915050565b6000612489838361245f565b9150826002028217905092915050565b6124a383836122e2565b67ffffffffffffffff8111156124bc576124bb611a53565b5b6124c682546121b9565b6124d182828561240c565b6000601f83116001811461250057600084156124ee578287013590505b6124f8858261247d565b865550612560565b601f19841661250e866122ed565b60005b8281101561253657848901358255600182019150602085019450602081019050612511565b86831015612553578489013561254f601f89168261245f565b8355505b6001600288020188555050505b50505050505050565b600060808201905061257e6000830187611f35565b61258b602083018661188a565b612598604083018561188a565b6125a5606083018461188a565b95945050505050565b60006125b982611814565b91506125c483611814565b92508282019050808211156125dc576125db61226b565b5b92915050565b600060408201905081810360008301526125fc8185611eb5565b905081810360208301526126108184611eb5565b90509392505050565b600081519050919050565b600082825260208201905092915050565b600061264082612619565b61264a8185612624565b935061265a8185602086016119b8565b612663816119e2565b840191505092915050565b600060a0820190506126836000830188611f35565b6126906020830187611f35565b61269d604083018661188a565b6126aa606083018561188a565b81810360808301526126bc8184612635565b90509695505050505050565b6000815190506126d7816118e0565b92915050565b6000602082840312156126f3576126f26117ac565b5b6000612701848285016126c8565b91505092915050565b600060a08201905061271f6000830188611f35565b61272c6020830187611f35565b818103604083015261273e8186611eb5565b905081810360608301526127528185611eb5565b905081810360808301526127668184612635565b9050969550505050505056fea264697066735822122036cf2bf2e9051a67682b89e79dd15bfa18826669d2d8dd6c6f51c1e3472acb3864736f6c63430008150033",
  "linkReferences": {},
  "deployedLinkReferences": {}
}