{
  "_format": "hh-sol-artifact-1",
  "contractName": "HypercertEscrow",
  "sourceName": "contracts/HypercertEscrow.sol",
  "abi": [
    {
      "inputs": [
        {
          "internalType": "address",
          "name": "_hypercert",
          "type": "address"
        }
      ],
      "stateMutability": "nonpayable",
      "type": "constructor"
    },
    {
      "inputs": [
        {
          "internalType": "address",
          "name": "owner",
          "type": "address"
        }
      ],
      "name": "OwnableInvalidOwner",
      "type": "error"
    },
    {
      "inputs": [
        {
          "internalType": "address",
          "name": "account",
          "type": "address"
        }
      ],
      "name": "OwnableUnauthorizedAccount",
      "type": "error"
    },
    {
      "anonymous": false,
      "inputs": [
        {
          "indexed": true,
          "internalType": "address",
          "name": "previousOwner",
          "type": "address"
        },
        {
          "indexed": true,
          "internalType": "address",
          "name": "newOwner",
          "type": "address"
        }
      ],
      "name": "OwnershipTransferred",
      "type": "event"
    },
    {
      "inputs": [],
      "name": "hypercert",
      "outputs": [
        {
          "internalType": "contract Hypercert",
          "name": "",
          "type": "address"
        }
      ],
      "stateMutability": "view",
      "type": "function"
    },
    {
      "inputs": [
        {
          "internalType": "address",
          "name": "",
          "type": "address"
        },
        {
          "internalType": "address",
          "name": "",
          "type": "address"
        },
        {
          "internalType": "uint256[]",
          "name": "",
          "type": "uint256[]"
        },
        {
          "internalType": "uint256[]",
          "name": "",
          "type": "uint256[]"
        },
        {
          "internalType": "bytes",
          "name": "",
          "type": "bytes"
        }
      ],
      "name": "onERC1155BatchReceived",
      "outputs": [
        {
          "internalType": "bytes4",
          "name": "",
          "type": "bytes4"
        }
      ],
      "stateMutability": "pure",
      "type": "function"
    },
    {
      "inputs": [
        {
          "internalType": "address",
          "name": "",
          "type": "address"
        },
        {
          "internalType": "address",
          "name": "",
          "type": "address"
        },
        {
          "internalType": "uint256",
          "name": "",
          "type": "uint256"
        },
        {
          "internalType": "uint256",
          "name": "",
          "type": "uint256"
        },
        {
          "internalType": "bytes",
          "name": "",
          "type": "bytes"
        }
      ],
      "name": "onERC1155Received",
      "outputs": [
        {
          "internalType": "bytes4",
          "name": "",
          "type": "bytes4"
        }
      ],
      "stateMutability": "pure",
      "type": "function"
    },
    {
      "inputs": [],
      "name": "owner",
      "outputs": [
        {
          "internalType": "address",
          "name": "",
          "type": "address"
        }
      ],
      "stateMutability": "view",
      "type": "function"
    },
    {
      "inputs": [
        {
          "internalType": "uint256",
          "name": "tokenId",
          "type": "uint256"
        },
        {
          "internalType": "address",
          "name": "to",
          "type": "address"
        }
      ],
      "name": "release",
      "outputs": [],
      "stateMutability": "nonpayable",
      "type": "function"
    },
    {
      "inputs": [],
      "name": "renounceOwnership",
      "outputs": [],
      "stateMutability": "nonpayable",
      "type": "function"
    },
    {
      "inputs": [
        {
          "internalType": "address",
          "name": "newOwner",
          "type": "address"
        }
      ],
      "name": "transferOwnership",
      "outputs": [],
      "stateMutability": "nonpayable",
      "type": "function"
    }
  ],
  "bytecode": "0x60806040523480156200001157600080fd5b5060405162000d9d38038062000d9d833981810160405281019062000037919062000235565b33600073ffffffffffffffffffffffffffffffffffffffff168173ffffffffffffffffffffffffffffffffffffffff1603620000ad5760006040517f1e4fbdf7000000000000000000000000000000000000000000000000000000008152600401620000a4919062000278565b60405180910390fd5b620000be816200010760201b60201c565b5080600160006101000a81548173ffffffffffffffffffffffffffffffffffffffff021916908373ffffffffffffffffffffffffffffffffffffffff1602179055505062000295565b60008060009054906101000a900473ffffffffffffffffffffffffffffffffffffffff169050816000806101000a81548173ffffffffffffffffffffffffffffffffffffffff021916908373ffffffffffffffffffffffffffffffffffffffff1602179055508173ffffffffffffffffffffffffffffffffffffffff168173ffffffffffffffffffffffffffffffffffffffff167f8be0079c531659141344cd1fd0a4f28419497f9722a3daafe3b4186f6b6457e060405160405180910390a35050565b600080fd5b600073ffffffffffffffffffffffffffffffffffffffff82169050919050565b6000620001fd82620001d0565b9050919050565b6200020f81620001f0565b81146200021b57600080fd5b50565b6000815190506200022f8162000204565b92915050565b6000602082840312156200024e576200024d620001cb565b5b60006200025e848285016200021e565b91505092915050565b6200027281620001f0565b82525050565b60006020820190506200028f600083018462000267565b92915050565b610af880620002a56000396000f3fe608060405234801561001057600080fd5b506004361061007d5760003560e01c80638da5cb5b1161005b5780638da5cb5b146100c6578063bc197c81146100e4578063f23a6e6114610114578063f2fde38b146101445761007d565b80634f24c93814610082578063715018a6146100a05780638124fea6146100aa575b600080fd5b61008a610160565b60405161009791906104e5565b60405180910390f35b6100a8610186565b005b6100c460048036038101906100bf9190610588565b61019a565b005b6100ce61023a565b6040516100db91906105d7565b60405180910390f35b6100fe60048036038101906100f99190610800565b610263565b60405161010b919061090a565b60405180910390f35b61012e60048036038101906101299190610925565b610278565b60405161013b919061090a565b60405180910390f35b61015e600480360381019061015991906109bc565b61028d565b005b600160009054906101000a900473ffffffffffffffffffffffffffffffffffffffff1681565b61018e610313565b610198600061039a565b565b6101a2610313565b600160009054906101000a900473ffffffffffffffffffffffffffffffffffffffff1673ffffffffffffffffffffffffffffffffffffffff1663f242432a30838560016040518563ffffffff1660e01b81526004016102049493929190610a6a565b600060405180830381600087803b15801561021e57600080fd5b505af1158015610232573d6000803e3d6000fd5b505050505050565b60008060009054906101000a900473ffffffffffffffffffffffffffffffffffffffff16905090565b600063bc197c8160e01b905095945050505050565b600063f23a6e6160e01b905095945050505050565b610295610313565b600073ffffffffffffffffffffffffffffffffffffffff168173ffffffffffffffffffffffffffffffffffffffff16036103075760006040517f1e4fbdf70000000000000000000000000000000000000000000000000000000081526004016102fe91906105d7565b60405180910390fd5b6103108161039a565b50565b61031b61045e565b73ffffffffffffffffffffffffffffffffffffffff1661033961023a565b73ffffffffffffffffffffffffffffffffffffffff16146103985761035c61045e565b6040517f118cdaa700000000000000000000000000000000000000000000000000000000815260040161038f91906105d7565b60405180910390fd5b565b60008060009054906101000a900473ffffffffffffffffffffffffffffffffffffffff169050816000806101000a81548173ffffffffffffffffffffffffffffffffffffffff021916908373ffffffffffffffffffffffffffffffffffffffff1602179055508173ffffffffffffffffffffffffffffffffffffffff168173ffffffffffffffffffffffffffffffffffffffff167f8be0079c531659141344cd1fd0a4f28419497f9722a3daafe3b4186f6b6457e060405160405180910390a35050565b600033905090565b600073ffffffffffffffffffffffffffffffffffffffff82169050919050565b6000819050919050565b60006104ab6104a66104a184610466565b610486565b610466565b9050919050565b60006104bd82610490565b9050919050565b60006104cf826104b2565b9050919050565b6104df816104c4565b82525050565b60006020820190506104fa60008301846104d6565b92915050565b6000604051905090565b600080fd5b600080fd5b6000819050919050565b61052781610514565b811461053257600080fd5b50565b6000813590506105448161051e565b92915050565b600061055582610466565b9050919050565b6105658161054a565b811461057057600080fd5b50565b6000813590506105828161055c565b92915050565b6000806040838503121561059f5761059e61050a565b5b60006105ad85828601610535565b92505060206105be85828601610573565b9150509250929050565b6105d18161054a565b82525050565b60006020820190506105ec60008301846105c8565b92915050565b600080fd5b6000601f19601f8301169050919050565b7f4e487b7100000000000000000000000000000000000000000000000000000000600052604160045260246000fd5b610640826105f7565b810181811067ffffffffffffffff8211171561065f5761065e610608565b5b80604052505050565b6000610672610500565b905061067e8282610637565b919050565b600067ffffffffffffffff82111561069e5761069d610608565b5b602082029050602081019050919050565b600080fd5b60006106c76106c284610683565b610668565b905080838252602082019050602084028301858111156106ea576106e96106af565b5b835b8181101561071357806106ff8882610535565b8452602084019350506020810190506106ec565b5050509392505050565b600082601f830112610732576107316105f2565b5b81356107428482602086016106b4565b91505092915050565b600080fd5b600067ffffffffffffffff82111561076b5761076a610608565b5b610774826105f7565b9050602081019050919050565b82818337600083830152505050565b60006107a361079e84610750565b610668565b9050828152602081018484840111156107bf576107be61074b565b5b6107ca848285610781565b509392505050565b600082601f8301126107e7576107e66105f2565b5b81356107f7848260208601610790565b91505092915050565b600080600080600060a0868803121561081c5761081b61050a565b5b600061082a88828901610573565b955050602061083b88828901610573565b945050604086013567ffffffffffffffff81111561085c5761085b61050f565b5b6108688882890161071d565b935050606086013567ffffffffffffffff8111156108895761088861050f565b5b6108958882890161071d565b925050608086013567ffffffffffffffff8111156108b6576108b561050f565b5b6108c2888289016107d2565b9150509295509295909350565b60007fffffffff0000000000000000000000000000000000000000000000000000000082169050919050565b610904816108cf565b82525050565b600060208201905061091f60008301846108fb565b92915050565b600080600080600060a086880312156109415761094061050a565b5b600061094f88828901610573565b955050602061096088828901610573565b945050604061097188828901610535565b935050606061098288828901610535565b925050608086013567ffffffffffffffff8111156109a3576109a261050f565b5b6109af888289016107d2565b9150509295509295909350565b6000602082840312156109d2576109d161050a565b5b60006109e084828501610573565b91505092915050565b6109f281610514565b82525050565b6000819050919050565b6000610a1d610a18610a13846109f8565b610486565b610514565b9050919050565b610a2d81610a02565b82525050565b600082825260208201905092915050565b50565b6000610a54600083610a33565b9150610a5f82610a44565b600082019050919050565b600060a082019050610a7f60008301876105c8565b610a8c60208301866105c8565b610a9960408301856109e9565b610aa66060830184610a24565b8181036080830152610ab781610a47565b90509594505050505056fea2646970667358221220f5ca8b362341c14172e5d0d4a77f42e53b85a0e6b322721fa332f14fcc46847464736f6c63430008150033",
  "linkReferences": {},
  "deployedLinkReferences": {}
}